:020000040800F2
:100000000028002071020008C1020008C102000897
:10001000C1020008C1020008C1020008000000007F
:10002000000000000000000000000000C102000805
:10003000C102000800000000C1020008C10200085F
:10004000C1020008C1020008C1020008C102000884
:10005000C1020008C1020008C1020008C102000874
:10006000C1020008C1020008C1020008C102000864
:10007000C1020008C1020008C1020008C102000854
:10008000C1020008C1020008C1020008C102000844
:10009000C1020008C1020008C1020008C102000834
:1000A000C1020008C1020008C1020008C102000824
:1000B000C1020008C1020008C1020008C102000814
:1000C000C1020008C1020008C1020008C102000804
:1000D000C1020008C1020008C1020008C1020008F4
:1000E000C1020008C102000800000000C1020008AF
:1000F000C1020008C1020008C1020008C1020008D4
:10010000C1020008C1020008C1020008C1020008C3
:10011000C1020008C1020008C1020008C1020008B3
:10012000C1020008C1020008C1020008C1020008A3
:1001300010B5054C237833B9044B13B10448AFF321
:1001400000800123237010BD00000020000000008B
:100150004408000808B5034B1BB103490348AFF33B
:10016000008008BD000000000400002044080008D2
:1001700080B400AF074B9B69064A43F004039361C8
:10018000044B9B69034A43F00803936100BFBD46DB
:1001900080BC70470010024080B582B000AF4FF4C1
:1001A0000073BB800423BB710123FB713B1D194607
:1001B000274800F07EFA4FF48063BB800423BB71B4
:1001C0000123FB713B1D1946214800F072FA4FF4E0
:1001D0000063BB800423BB710123FB713B1D1946E7
:1001E0001B4800F066FA4FF48053BB800423BB71B8
:1001F0000123FB713B1D1946154800F05AFA4FF4D4
:100200000053BB800423BB710123FB713B1D1946C6
:100210000F4800F04EFA4FF48043BB800423BB71BB
:100220000123FB713B1D1946094800F042FA4FF4C7
:100230000043BB800423BB710123FB713B1D1946A6
:10024000034800F036FA00BF0837BD4680BD00BF46
:10025000000C014080B500AFFFF78AFF00F03CF9C9
:10026000FFF79AFF014800F095F9FBE75C080008EA
:100270000D488546AFF300800C480D490D4A002318
:1002800002E0D458C4500433C4188C42F9D30A4A4B
:100290000A4C002301E013600432A242FBD300F0B9
:1002A000ADFAFFF7D7FFFEE700280020000000208E
:1002B0000000002068080008000000202000002046
:1002C000FEE780B485B000AF78600023FB600BE0F0
:1002D0000023BB6002E0BB680133BB60BB68FE2B40
:1002E000F9D9FB680133FB60FA687B689A42EFD367
:1002F00000BF1437BD4680BC7047000080B500AF1A
:10030000524B4FF480721A80504B04229A704F4B1C
:100310000122DA704D494E4800F0CBF94B4B4FF4B7
:1003200000721A80494B04229A70484B0122DA70FD
:100330004649474800F0BDF9444B4FF480621A80AB
:10034000424B04229A70414B0122DA703F494048E7
:1003500000F0AFF93D4B01221A803C4B04229A7009
:100360003A4B0122DA703949394800F0A2F9374B8B
:1003700002221A80354B04229A70344B0122DA7023
:100380003249334800F095F9304B04221A802F4B44
:1003900004229A702D4B0122DA702C492C4800F06F
:1003A00088F92A4B08221A80284B04229A70274B7E
:1003B0000122DA702549264800F07BF9234B1022F0
:1003C0001A80224B04229A70204B0122DA701F49B6
:1003D0001F4800F06EF91D4B20221A801B4B04228F
:1003E0009A701A4B0122DA701849194800F061F925
:1003F000164B40221A80154B04229A70134B01228F
:10040000DA701249124800F054F9104B80221A8019
:100410000E4B04229A700D4B0122DA700B490C48E6
:1004200000F047F900224FF48061094800F0C0F95C
:1004300000224FF48071064800F0BAF900224FF410
:100440000071034800F0B4F900BF80BD1C0000201B
:100450000008014080B500AF012000F057F800BF50
:1004600080BD000080B500AF01224FF480610748D5
:1004700000F09EF93220FFF724FF00224FF4806144
:10048000024800F095F900BF80BD00BF00080140A0
:1004900080B582B000AF03460A46FB711346BB71BC
:1004A000FB79012B08D1BB790F2B05D8BB79803B99
:1004B000DBB2184600F02AF8FB79022B08D1BB7991
:1004C0000F2B05D8BB79403BDBB2184600F01EF875
:1004D00000BF0837BD4680BD80B500AF1420FFF7D0
:1004E000F0FEFFF70BFF0F20FFF7EBFEFFF7B2FF69
:1004F000382000F00BF8062000F008F8802000F00B
:1005000005F80F2000F002F800BF80BD80B582B072
:1005100000AF0346FB71FB799BB219460B4800F014
:100520005EF900224FF40071084800F041F9002202
:100530004FF48071054800F03BF90120FFF7C1FE40
:10054000FFF790FF00BF0837BD4680BD000801409F
:1005500080B582B000AF0346FB71FB799BB21946B0
:100560000B4800F03CF900224FF40071084800F0FD
:100570001FF901224FF48071054800F019F901209C
:10058000FFF79FFEFFF76EFF00BF0837BD4680BD37
:100590000008014080B584B000AF78600023FB60A4
:1005A0001CE0FB680133FB607B685A1C7A601B7897
:1005B0001846FFF7CDFFFB68102B04D10021022065
:1005C000FFF766FF0AE0FB68202B07D1FFF742FF29
:1005D00000210120FFF75CFF0023FB607B681B7894
:1005E000002BDED100BF1037BD4680BD80B483B084
:1005F00000AF0346FB80FB88802B42D0802B11DCB0
:10060000082B36D0082B06DC022B2ED0042B2ED044
:10061000012B28D047E0202B2FD0402B2FD0102BA0
:1006200029D040E0B3F5006F33D0B3F5006F09DC9B
:10063000B3F5007F29D0B3F5806F28D0B3F5807F64
:1006400021D030E0B3F5005F27D0B3F5005F03DCC5
:10065000B3F5805F1FD026E0B3F5804F1FD0B3F510
:10066000004F1ED01FE000231EE004231CE00823DF
:100670001AE00C2318E0102316E0142314E01823CA
:1006800012E01C2310E000230EE004230CE00823FA
:100690000AE00C2308E0102306E0142304E01823EA
:1006A00002E01C2300E0002318460C37BD4680BC46
:1006B000704790B585B000AF786039600023BB60AB
:1006C0000023FB733B681B88FF2B01D87B6801E08C
:1006D0007B680433BB603B681B881846FFF786FFC6
:1006E00003461A460F239340DA43BB681B681A403F
:1006F000BB681A603B689B78072B0BD03B689B78E4
:10070000062B07D03B689B78052B03D03B689B7872
:10071000042B0ED13B689B78043B9B005AB23B688C
:10072000DB785BB213435BB2DBB203F00F03FB7306
:100730002CE03B689B78012B03D03B689B78002B17
:1007400007D13B689B789B00DBB203F00F03FB7380
:100750001CE03B689B78082B02D10423FB7315E057
:100760000823FB733B689B78022B07D17B68DB680F
:100770003A6812881A437B68DA6007E07B68DB68B6
:100780003A681288D2431A407B68DA60FC7B3B6887
:100790001B881846FFF72AFF034604FA03F2BB68DA
:1007A0001B681A43BB681A6000BF1437BD4690BD72
:1007B00080B483B000AF78600B467B8013467B70BB
:1007C0007B78002B03D07A887B681A6102E07A88F4
:1007D0007B685A6100BF0C37BD4680BC704780B44F
:1007E00083B000AF78600B467B807A887B68DA60E4
:1007F00000BF0C37BD4680BC7047000070B50025B7
:100800000C4E0D4CA41BA410A54209D100F01AF8FF
:1008100000250A4E0A4CA41BA410A54205D170BDA8
:1008200056F8253098470135EEE756F825309847B9
:100830000135F2E760080008600800086008000859
:1008400064080008F8B500BFF8BC08BC9E467047B5
:0C085000F8B500BFF8BC08BC9E4670471D
:04085C0048455900B2
:040860005501000836
:040864003101000856
:04000005080002717C
:00000001FF
